:0300000002089E55
:0C089E00787FE4F6D8FD75815C0208E567
:100BF40074656D703A0068756D693A00434F323A16
:010C040000EF
:100BBA0001591E01583C0440003567E00444000016
:060BCA000000025B0000C8
:100BD100AD071FED600BE4FEEEC394FA50F20E80F8
:010BE100F71C
:010BE20022F0
:100AE000E4FE7D80EDD394004017ED5F6004D2A456
:100AF0008002C2A4D2A3000000C2A3EDC313FD80F4
:100B0000E3D2A4D2A3A2A4E433000000C2A3D2A4DF
:010B1000FFE5
:010B110022C1
:100B1200E4FED2A47D80EDD394004010D2A330A491
:100B220003ED4206C2A3EDC313FD80EAEF24FFB337
:100B320092A4D2A3000000C2A3000000D2A4AF0678
:010B42002290
:100B8800D2A4C2A300D2A300C2A400C2A300000042
:090B9800D2A300D2A400C2A322E2
:100BE300D2A4C2A3E4FFD2A3C2A30FBF09F8020B8E
:010BF3008879
:06092A008B128A138914F0
:10093000E4F519F51A120B88E51824FE6007047017
:10094000187F0380027F05120AE0EF3395E0FEEF87
:10095000251AF51AEE3519F519900000AF82AE830D
:10096000E4FCFD7BFF7AFFF9F8D31204AA400630BD
:10097000A403A380E730A408051AE51A700205193C
:100980007F01120B12AB12AA13A914EF1202C07F3F
:1009900001120B12AB12AA13A914900001EF12025C
:1009A000D2E4FF120B12AB15AA16A917EF1202C060
:0209B000AF1A7C
:0109B2002222
:060563008B128A138914BB
:10056900E4F51BF51A7519807518C0751F54751EA9
:10057900E3751D25751C3D7523A27522E775213B81
:100589007520B675270A7526D775252375243C75F8
:100599002BAC752AC57529A77528381204D18F2F58
:1005A9008E2E8D2D8C2CAB15AA16A9171204D18F5E
:1005B900338E328D318C307F0A7ED77D237C3CABE4
:1005C90033AA32A931A8301200FBE4FBFA7920786A
:1005D900C212000A8F3F8E3E8D3D8C3CAF2FAE2E4E
:1005E900AD2DAC2CAB23AA22A921A8201200FBAB6C
:1005F9002FAA2EA92DA82C1200FBC004C005C006E5
:10060900C007AF2FAE2EAD2DAC2CAB1FAA1EA91D56
:10061900A81C1200FBD003D002D001D00012000A9E
:10062900AB1BAA1AA919A81812000A8F378E368D82
:10063900358C34AF2FAE2EAD2DAC2CAB2BAA2AA9FD
:1006490029A8281200FBAB27AA26A925A82412004D
:100659000AC004C005C006C007E4FFFE7DC87CC10E
:10066900AB3FAA3EA93DA83C12000AD003D002D054
:1006790001D0001200FBAB37AA36A935A834120005
:100689000A8F3B8E3A8D398C38AF3FAE3EAD3DACCB
:100699003CAB15AA16A9171204F1AF3BAE3AAD3916
:0B06A900AC38AB12AA13A9140204F134
:1009B300C3EE648094805003E4FEFFD3EF94CAEE49
:1009C3006480948340047E037FCAD3EF94EBEE6488
:1009D3008094804007740A2FFFE43EFED3EF942BEC
:1009E300EE648094824007740A2FFFE43EFED3EF47
:1009F300946BEE648094834007740A2FFFE43EFEF9
:100A03007C037DE81203497E007F0ACFCDCFCECC95
:050A1300CE1203492290
:100A6D00D3EF94E7EE940340047E037FE7D3EF9436
:100A7D00EAEE94014010EF94B7EE9403500874F62B
:100A8D002FFF74FF3EFE7C037DE81202F47E007F93
:0F0A9D000ACFCDCFCECCCE1202F4EF2404FF222D
:1007EA00E4F510F515751600751711751801FB7AE1
:1007FA0000790C12092AEF2510F5107515007516E7
:10080A00007517117518027B007A00790812092AF7
:10081A00EF2510F5106003020BE3AC08AD09E412F2
:10082A0002068F0B8E0A8D098C08AC0CAD0DE412F2
:10083A0002068F0F8E0E8D0D8C0C75150075160025
:10084A0075170C7B007A007908120563E4FFFE7DB8
:10085A00207C41AB0FAA0EA90DA80C1200FB1202B4
:10086A003F1209B38F49E4FFFE7D207C41AB0BAAFE
:10087A000AA909A8081200FBE4FBFA794878C2120F
:10088A00000A12023FAB07AA06120A6D8F48EB1B39
:03089A0070011AD0
:01089D002238
:020A1800AD0728
:100A1A00E4FFFEC2B3C2B2EDC454F0FDE4FB30B051
:100A2A0003430701ED3392B1D2B3C2B3ED25E0FD22
:100A3A00EF25E0FFEE33FE0BBB0CE3D2B2EEC3139D
:100A4A00FEEF13FFE48F4E8E4DF54CF54BAD4CACDB
:100A5A004B7BC57A04F9F812037F8F4E8E4D8D4C6D
:020A6A008C4BB3
:010A6C002267
:1006B400120BA1120BE37A0B7BF4E4FDFF120AACDC
:1006C4007A0B7BFAE4FD7F08120AAC7A0C7B007D7E
:1006D40001E4FF120AAC7B2E7D017F05120B6D1223
:1006E40007EAE54875F00A842430FBE4FD7F0D1227
:1006F4000B6DE54875F00A84E5F02430FBE4FD7FDA
:100704000E120B6DE54975F00A842430FBE4FD7F7D
:1007140005120B6DE54975F00A84E5F02430FBE41D
:10072400FD7F06120B6D7F01120A18854E47854D19
:1007340046854C45854B447B407A42790F7800AF1F
:100744004EAE4DAD4CAC4B12040AEF2430FB7D0190
:100754007F04120B6D7BA07A8679017800AF4EAED0
:100764004DAD4CAC4B12040AE47B0AFAF9F81204BE
:100774000AEB2430FB7D017F06120B6DE47B107ABB
:1007840027F9F8AF4EAE4DAD4CAC4B12040AE47BE6
:100794000AFAF9F812040AEB2430FB7D017F0712F0
:1007A4000B6DAF43AE42AD41AC40AB47AA46A94541
:1007B400A844D31204C04007D291C2A50206E3E5BF
:1007C40048C395585007D2B5C2A50206E3E549D3FC
:1007D40095594007D290C2A50206E3D2A5C291C2A0
:0607E400B5C2900206E31D
:100B4300C2A18F807F017E00120B54D2A27F057E4B
:010B530000A1
:100B5400D3EF9400EE9400400F7DC77C01DCFEDDF2
:080B6400FAEF1F70EB1E80E8A0
:010B6C002266
:0A0C0500C2A2C2A0120B43C2A22239
:0A0C0F00C2A2D2A0120B43C2A2221F
:100BA1007F38120C057F0C120C057F06120C057F95
:090BB10001120C057F80020C0505
:100B6D00AE0753050153060FED60034306404306E0
:0B0B7D0080AF06120C05AF03020C0F46
:080AAC008D088A098B0AA907D5
:100AB400E4FA53080153010FE50A2AF582E43509E3
:100AC400F583E493FBC394204011E9D3940F50E8D9
:0B0AD400AF01AD08120B6D0A0980DDB8
:010ADF0022F4
:100003000202ABE86480F8E933E83360110460F07E
:10001300ED33EC337009E8FCE9FDEAFEEBFF220463
:1000230060DED3EB9FEA9EE99DE8C2E78CF0C2F75E
:1000330095F0400CE8CCF8E9CDF9EACEFAEBCFFB2A
:1000430012027685D0F05804700320D5B3E804700B
:10005300075002B2D50202B592D5EC0460F7E4CCA6
:10006300C0E0C398F8603B94186008400DD0E0FBF3
:1000730002028DE4FBFAC9FC8028E830E406E4C9F7
:10008300FBE4CAFCE830E305E4C9CACBFCE8540747
:100093006010F8C3E913F9EA13FAEB13FBEC13FC52
:1000A300D8F130F52FC3E49CFCEF9BFFEE9AFEEDF5
:1000B30099FDD0E0FBEF4E4D4C701222DB030202A0
:1000C300B2EC2CFCEF33FFEE33FEED33FDED30E706
:1000D300EB02028DEF2BFFEE3AFEED39FDD0E0FB94
:1000E30050130BBB00030202B5ED13FDEE13FEEF3D
:0800F30013FFEC13FC02028D67
:1000FB00EC4D6011E8497017ED33EC3304600DE4FF
:10010B00FCFFFEFD22E933E8330470F80202AB1268
:10011B00027658046009E4CC248150062850090269
:10012B0002B52840030202B2C0E0EB4A7044B9802A
:10013B0006D0E0FB0202A1EF4E701CBD8008EBFF66
:10014B00EAFEE9FD80EBE98DF0A4FEE5F00201E4A7
:10015B00E9CDF9EAFEEBFFEF89F0A4FCE5F0CE89DF
:10016B00F0A42EFFE435F0CD89F0A42DFEE435F09C
:10017B008067EF4E7005BD80D780C3EF8BF0A4ACCA
:10018B00F0EE8BF0A42CFCE435F0F8EF8AF0A42C05
:10019B00E5F038FCE433CB8DF0A42CFCE5F03BF818
:1001AB00EE8AF0A42CFCE5F038F8E433CF89F0A408
:1001BB002CFCE5F038CF3400CE89F0A42FFFE5F00E
:1001CB003EFEE433C98DF0A42EFEE5F039CD8AF066
:1001DB00A42FFFE5F03EFEE43DFD33D0E0FB5007DE
:1001EB000BBB000F0202B5EC2CFCEF33FFEE33FE22
:0601FB00ED33FD02028D50
:1002010075F020800E75F010800575F0087D007E78
:10021100007F003392D530D50312049CEC3340109B
:10022100EF33FFEE33FEED33FDEC33FCD5F0ED2281
:0E023100E5F0247EA2D513CC92E7CDCEFF22BD
:10023F00EDD2E7CD33EC3392D524814006E4FFFEB7
:10024F00FDFC22FCE4CFCECDCC24E0501174FF8016
:10025F00EDC3CC13CCCD13CDCE13CECF13CF0470B3
:07026F00F030D5DE02049C13
:10027600E9D2E7C933E833F892D5EDD2E7CD33ECCE
:0702860033FC5002B2D52247
:10028D00EC30E7100FBF000C0EBE00080DBD0004D2
:10029D000BEB6014A2D5EB13FCED92E7FD2274FF7E
:1002AD00FCFDFEFF22E480F8A2D574FF13FC7D80D7
:0302BD00E480EFEB
:1008AA000206B4E493A3F8E493A34003F68001F2AA
:1008BA0008DFF48029E493A3F85407240CC8C3334F
:1008CA00C4540F4420C8834004F456800146F6DF1E
:1008DA00E4800B0102040810204080900BBAE47EE9
:1008EA00019360BCA3FF543F30E509541FFEE49313
:1008FA00A360010ECF54C025E060A840B8E493A3DA
:10090A00FAE493A3F8E493A3C8C582C8CAC583CA04
:10091A00F0A3C8C582C8CAC583CADFE9DEE780BEBC
:010BD0000024
:1002C000BB010689828A83F0225002F722BBFE011D
:0202D000F32217
:1002D200F8BB010DE58229F582E5833AF583E8F062
:1002E200225006E92582C8F622BBFE05E92582C80E
:0202F200F222F6
:1002F400BC000BBE0029EF8DF084FFADF022E4CCEE
:10030400F875F008EF2FFFEE33FEEC33FCEE9DECB6
:10031400984005FCEE9DFE0FD5F0E9E4CEFD22EDFC
:10032400F8F5F0EE8420D21CFEADF075F008EF2F46
:10033400FFED33FD4007985006D5F0F222C398FD37
:050344000FD5F0EA22D4
:10034900C2D5EC30E709B2D5E4C39DFDE49CFCEECF
:1003590030E715B2D5E4C39FFFE49EFE1202F4C351
:10036900E49DFDE49CFC80031202F430D507C3E44C
:060379009FFFE49EFE223E
:10037F00E88FF0A4CC8BF0A42CFCE98EF0A42CFC1D
:10038F008AF0EDA42CFCEA8EF0A4CDA8F08BF0A49B
:10039F002DCC3825F0FDE98FF0A42CCD35F0FCEBFA
:1003AF008EF0A4FEA9F0EB8FF0A4CFC5F02ECD39BF
:0F03BF00FEE43CFCEAA42DCE35F0FDE43CFC222C
:1003CE0075F008758200EF2FFFEE33FECD33CDCCE6
:1003DE0033CCC58233C5829BED9AEC99E582984069
:1003EE000CF582EE9BFEED9AFDEC99FC0FD5F0D646
:1003FE00E4CEFBE4CDFAE4CCF9A88222B800C1B970
:10040E000059BA002DEC8BF084CFCECDFCE5F0CBAD
:10041E00F97818EF2FFFEE33FEED33FDEC33FCEBE6
:10042E0033FB10D703994004EB99FB0FD8E5E4F9A1
:10043E00FA227818EF2FFFEE33FEED33FDEC33FC8E
:10044E00C933C910D7059BE99A4007EC9BFCE99A82
:10045E00F90FD8E0E4C9FAE4CCFB2275F010EF2FC7
:10046E00FFEE33FEED33FDCC33CCC833C810D707C7
:10047E009BEC9AE899400AED9BFDEC9AFCE899F802
:0E048E000FD5F0DAE4CDFBE4CCFAE4C8F92295
:0E049C00C3E49FFFE49EFEE49DFDE49CFC2271
:1004AA00EB9FF5F0EA9E42F0E99D42F0EC6480C8C9
:0604BA0064809845F02269
:1004C000EB9FF5F0EA9E42F0E99D42F0E89C45F092
:0104D0002209
:1004D100BB010789828A830205175005E9F80205E5
:1004E1000BBBFE05E9F802052389828A8302052FE9
:1004F100BB010789828A8302054B5005E9F8020591
:0A0501003FBBFE05E9F80205572292
:0C050B00E6FC08E6FD08E6FE08E6FF221C
:0C051700E0FCA3E0FDA3E0FEA3E0FF2257
:0C052300E2FC08E2FD08E2FE08E2FF2214
:10052F00E493FC740193FD740293FE740393FF2212
:0C053F00ECF608EDF608EEF608EFF622E8
:0C054B00ECF0A3EDF0A3EEF0A3EFF02223
:0C055700ECF208EDF208EEF208EFF222E0
:00000001FF
