:0E042700012B2801290A0621A1E62020000051
:1004A300759850758920758780758DF3758BF3D298
:0604B300ACD2AFD28E2294
:10040100C3E52B6480F8E52A6480984002800DC31F
:10041100E5296480F8E52A6480985005C2A1C2A349
:0604210022D2A1D2A322A9
:10000300750820E52A75F06412010FFF3395E0FEB1
:1000130074E22FF58274043EF583E493F509E52A2F
:1000230075F06412010FAFF0EF75F00A12010FFDC6
:100033003395E0FC74E22DF58274043CF583E4937C
:10004300F50AEF75F00A12010FAFF0EF3395E0FEFA
:1000530074E22FF58274043EF583E493F50BAF2C21
:10006300EF3395E0FE74E22FF58274043EF583E4EA
:1000730093F50D750C2E750EDF750F431203408E2D
:10008300278F28E52730E7117508B06328FF63271A
:10009300FF0528E52870020527E528AE277804CE5A
:1000A300A2E713CE13D8F8F52AE528540FF52CFF51
:1000B3003395E0FE7C007D061201317D0A12014377
:1000C3008F2C1204017F84120449E4F5317408254E
:1000D30031F8E6FF1204677F0A7E001204850531BA
:1000E300E531C3940840E67F0174082FF8E6F599DB
:1000F3003099FDC2990FBF06F0E4FF74212FF8E693
:0B010300F5993099FDC2990FBF04F080
:01010E0022CE
:0601CE008F2D8C2E8D2FF9
:1001D400C3E52E6480948050057508B0801CAF2F51
:1001E400AE2E1204CB7C007D6412014374E22FF521
:1001F4008274043EF583E493F508AF2FAE2E120407
:10020400CB7C007D641201437E007F0ACFCDCFCE2C
:10021400CCCE12014374E22FF58274043EF583E4DC
:1002240093F509AF2FAE2E1204CB7C007D6412012E
:10023400437E007F0ACFCDCFCECCCE12014374E2F1
:100244002DF58274043CF583E493F50AE52D24C06E
:10025400FF120449E4F53074082530F8E6FF12046F
:10026400677F057E001204850530E530C3940340A2
:01027400E6A3
:010275002266
:1004B9001204A31203021200037FF47E01120485C1
:0204C90080F4BD
:0A04E2003031323334353637383903
:1004350011106D696E3A30313020206D61783A3097
:0304450034300050
:100449008F327F057E00120485C2A5C2A7C2A68588
:0E0459003280D2A57F057E00120485C2A52246
:100467008F327F057E00120485C2A5D2A7C2A6855A
:0E0477003280D2A57F057E00120485C2A52228
:100302007F0F7E001204857F381204497F06120493
:10031200497F0C1204497F011204497FC01204492B
:10032200E4F53174102531F8E6FF1204677F0A7E86
:0D033200001204850531E531C3941040E64A
:01033F00229B
:1003D700E4F533D2B77F08FE1204D7C2B77F507E49
:1003E700001204D7D2B77F0A7E001204D7A2B7E45F
:0A03F70033F5337F057E000204D7C2
:1003AC00E4F533F534753308C2B7E534C313F534CB
:1003BC00D2B730B7034334807F057E001204D715C3
:0A03CC0033E533D3940050E0AF3462
:0103D6002204
:02037E008F33BB
:10038000E4F534753408C2B7E5331392B77F057EC0
:10039000001204D7D2B7E533C313F5331534E5346F
:0C03A000D3940050E17F057E000204D7DA
:10034000E4F532FFFEFDFC1203D77FCC12037E7F63
:100350004412037E7FC87E001204D71203D77FCCDD
:1003600012037E7FBE12037E1203AC8F321203ACE7
:0D037000EF7F00FEEF2532FDE43EFEAF05FD
:01037D00225D
:0B04D700EF1FAC0670011E4C70F622F7
:10048500D3EF9400EE940040147D6E7C00ED1D705A
:0D049500011CED4C70F7EF1F70E61E80E3B8
:0104A2002237
:0300000002027683
:0C027600787FE4F6D8FD7581340202BDEB
:10010F00C2D530F707B2D563F0FF05F030E70CB278
:10011F00D5F4048463F0FF05F080018430D502F438
:02012F000422A8
:10013100EF8DF0A4A8F0CF8CF0A428CE8DF0A42EE2
:02014100FE229C
:10014300C2D5EC30E709B2D5E4C39DFDE49CFCEED7
:1001530030E715B2D5E4C39FFFE49EFE120179C3D5
:10016300E49DFDE49CFC800312017930D507C3E4D0
:060173009FFFE49EFE2246
:0C04CB00EE30E707C3E49FFFE49EFE2232
:100282000204B9E493A3F8E493A34003F68001F2D5
:1002920008DFF48029E493A3F85407240CC8C3337D
:1002A200C4540F4420C8834004F456800146F6DF4C
:1002B200E4800B0102040810204080900427E47EB1
:1002C200019360BCA3FF543F30E509541FFEE49341
:1002D200A360010ECF54C025E060A840B8E493A308
:1002E200FAE493A3F8E493A3C8C582C8CAC583CA33
:1002F200F0A3C8C582C8CAC583CADFE9DEE780BEEB
:0104480000B3
:10017900BC000BBE0029EF8DF084FFADF022E4CC6A
:10018900F875F008EF2FFFEE33FEEC33FCEE9DEC33
:10019900984005FCEE9DFE0FD5F0E9E4CEFD22ED79
:1001A900F8F5F0EE8420D21CFEADF075F008EF2FC3
:1001B900FFED33FD4007985006D5F0F222C398FDB4
:0501C9000FD5F0EA2251
:00000001FF
